{
  "jsonrpc": "2.0",
  "result": [
    {
      "blockHash": null,
      "blockNumber": null,
      "chainId": "0x2539",
      "condition": null,
      "creates": null,
      "from": "0xba98a648e273479d8780d6e78f00cbb00c5cb275",
      "gas": "0x203a0",
      "gasPrice": "0x3b9aca00",
      "hash": "0xc80a1e5559cdf46d964937a00cc985f2ce8b3cec424f6be7cdc6bf37cc7163bb",
      "input": "0x9e7306df000000000000000000000000fefefefefefefefefefefefefefefefefefefefe000000000000000000000000efefefefefefefefefefefefefefefefefefefef0000000000000000000000000000000000000000000000000000000000000001",
      "nonce": "0x157",
      "publicKey": "0x7d85ef31e0f8fc6470d2decfb5840e02dc20859a232fc3d01db861d4b8bdb3ec8ab46a445658dd6d0c6ee8e201f36b8c43320c02fc0653363476e1793189d18a",
      "r": "0x21d2113c98ff8548cf1563b7aafc9affc2833dc968ef9e4e9c0621113474a71f",
      "raw": "0xf8cd820157843b9aca00830203a0940acf3696cdf39b3782d984693c122ac34ac614c780b8649e7306df000000000000000000000000fefefefefefefefefefefefefefefefefefefefe000000000000000000000000efefefefefefefefefefefefefefefefefefefef0000000000000000000000000000000000000000000000000000000000000001824a96a021d2113c98ff8548cf1563b7aafc9affc2833dc968ef9e4e9c0621113474a71fa005f1c417a227a6e7a0c321918e8935766251075125bcfb5a9428b2fad0a04a46",
      "s": "0x5f1c417a227a6e7a0c321918e8935766251075125bcfb5a9428b2fad0a04a46",
      "standardV": "0x1",
      "to": "0x0acf3696cdf39b3782d984693c122ac34ac614c7",
      "transactionIndex": null,
      "v": "0x4a96",
      "value": "0x0"
    },
    {
      "blockHash": null,
      "blockNumber": null,
      "chainId": "0x2539",
      "condition": null,
      "creates": null,
      "from": "0xba98a648e273479d8780d6e78f00cbb00c5cb275",
      "gas": "0x203a0",
      "gasPrice": "0x3b9aca00",
      "hash": "0x65db455320c73fb6bfca4d21ac3c5de6acdf6cbba97c79bc203d2177d5635ff9",
      "input": "0x9e7306df000000000000000000000000fefefefefefefefefefefefefefefefefefefefe000000000000000000000000efefefefefefefefefefefefefefefefefefefef0000000000000000000000000000000000000000000000000000000000000001",
      "nonce": "0x158",
      "publicKey": "0x7d85ef31e0f8fc6470d2decfb5840e02dc20859a232fc3d01db861d4b8bdb3ec8ab46a445658dd6d0c6ee8e201f36b8c43320c02fc0653363476e1793189d18a",
      "r": "0xcc0026c310f15cfc19b1a2b49c67fa86dc989850aae440cb107b690d12cce36b",
      "raw": "0xf8cd820158843b9aca00830203a094b6d6e6b3e1d0fc1733d3b4651eb1031a363bf73480b8649e7306df000000000000000000000000fefefefefefefefefefefefefefefefefefefefe000000000000000000000000efefefefefefefefefefefefefefefefefefefef0000000000000000000000000000000000000000000000000000000000000001824a96a0cc0026c310f15cfc19b1a2b49c67fa86dc989850aae440cb107b690d12cce36ba0575508d66640de061ce54a8604a6338fd259d6faeb578c41fa27dccd18b65b46",
      "s": "0x575508d66640de061ce54a8604a6338fd259d6faeb578c41fa27dccd18b65b46",
      "standardV": "0x1",
      "to": "0xb6d6e6b3e1d0fc1733d3b4651eb1031a363bf734",
      "transactionIndex": null,
      "v": "0x4a96",
      "value": "0x0"
    },
    {
      "blockHash": null,
      "blockNumber": null,
      "chainId": "0x2539",
      "condition": null,
      "creates": null,
      "from": "0xba98a648e273479d8780d6e78f00cbb00c5cb275",
      "gas": "0x203a0",
      "gasPrice": "0x3b9aca00",
      "hash": "0xb0a45647634da49a09dd2c1f733c10022f09d0dec1ea5bc3e8fc3ff7b5814a19",
      "input": "0x9e7306df000000000000000000000000fefefefefefefefefefefefefefefefefefefefe000000000000000000000000efefefefefefefefefefefefefefefefefefefef0000000000000000000000000000000000000000000000000000000000000001",
      "nonce": "0x15b",
      "publicKey": "0x7d85ef31e0f8fc6470d2decfb5840e02dc20859a232fc3d01db861d4b8bdb3ec8ab46a445658dd6d0c6ee8e201f36b8c43320c02fc0653363476e1793189d18a",
      "r": "0xc498c24b9390f3f6c6112afaf157429614dedb40797827496c4f49f7bf0753ae",
      "raw": "0xf8cd82015b843b9aca00830203a0940acf3696cdf39b3782d984693c122ac34ac614c780b8649e7306df000000000000000000000000fefefefefefefefefefefefefefefefefefefefe000000000000000000000000efefefefefefefefefefefefefefefefefefefef0000000000000000000000000000000000000000000000000000000000000001824a96a0c498c24b9390f3f6c6112afaf157429614dedb40797827496c4f49f7bf0753aea010b68f59286dbbc401704c887264d667a3c8186ce7c1ead2b00872a0fe85170e",
      "s": "0x10b68f59286dbbc401704c887264d667a3c8186ce7c1ead2b00872a0fe85170e",
      "standardV": "0x1",
      "to": "0x0acf3696cdf39b3782d984693c122ac34ac614c7",
      "transactionIndex": null,
      "v": "0x4a96",
      "value": "0x0"
    },
    {
      "blockHash": null,
      "blockNumber": null,
      "chainId": "0x2539",
      "condition": null,
      "creates": null,
      "from": "0xba98a648e273479d8780d6e78f00cbb00c5cb275",
      "gas": "0x203a0",
      "gasPrice": "0x3b9aca00",
      "hash": "0x94d9ffb5e8010072c73761b11e770871c0489599c9f77718ada362a90d925013",
      "input": "0x9e7306df000000000000000000000000fefefefefefefefefefefefefefefefefefefefe000000000000000000000000efefefefefefefefefefefefefefefefefefefef0000000000000000000000000000000000000000000000000000000000000001",
      "nonce": "0x15c",
      "publicKey": "0x7d85ef31e0f8fc6470d2decfb5840e02dc20859a232fc3d01db861d4b8bdb3ec8ab46a445658dd6d0c6ee8e201f36b8c43320c02fc0653363476e1793189d18a",
      "r": "0x94cca2943b4a29bdb925d6ae8821f7644fc0336ddc8394071e0f960320ea3f2f",
      "raw": "0xf8cd82015c843b9aca00830203a094b6d6e6b3e1d0fc1733d3b4651eb1031a363bf73480b8649e7306df000000000000000000000000fefefefefefefefefefefefefefefefefefefefe000000000000000000000000efefefefefefefefefefefefefefefefefefefef0000000000000000000000000000000000000000000000000000000000000001824a96a094cca2943b4a29bdb925d6ae8821f7644fc0336ddc8394071e0f960320ea3f2fa0441f614c52419ed19fc9a9b62722af8ea362b5d5645042060d525f6a46b15797",
      "s": "0x441f614c52419ed19fc9a9b62722af8ea362b5d5645042060d525f6a46b15797",
      "standardV": "0x1",
      "to": "0xb6d6e6b3e1d0fc1733d3b4651eb1031a363bf734",
      "transactionIndex": null,
      "v": "0x4a96",
      "value": "0x0"
    },
    {
      "blockHash": null,
      "blockNumber": null,
      "chainId": "0x2539",
      "condition": null,
      "creates": null,
      "from": "0xba98a648e273479d8780d6e78f00cbb00c5cb275",
      "gas": "0x203a0",
      "gasPrice": "0x3b9aca00",
      "hash": "0x5299f78c153de8391b2a30cd6f586f89c9b5358000677a3ebb26c97191554937",
      "input": "0x9e7306df000000000000000000000000fefefefefefefefefefefefefefefefefefefefe000000000000000000000000efefefefefefefefefefefefefefefefefefefef0000000000000000000000000000000000000000000000000000000000000001",
      "nonce": "0x160",
      "publicKey": "0x7d85ef31e0f8fc6470d2decfb5840e02dc20859a232fc3d01db861d4b8bdb3ec8ab46a445658dd6d0c6ee8e201f36b8c43320c02fc0653363476e1793189d18a",
      "r": "0x80df0e3fa14ab8aea3b968f7a744c3fec610ec074b7a38a6f1cebea836ab80f2",
      "raw": "0xf8cd820160843b9aca00830203a094b6d6e6b3e1d0fc1733d3b4651eb1031a363bf73480b8649e7306df000000000000000000000000fefefefefefefefefefefefefefefefefefefefe000000000000000000000000efefefefefefefefefefefefefefefefefefefef0000000000000000000000000000000000000000000000000000000000000001824a96a080df0e3fa14ab8aea3b968f7a744c3fec610ec074b7a38a6f1cebea836ab80f2a073af50b675ebd5cdf47a00a84276df0fb366a67658f13a29fb9e92e7cd3a3017",
      "s": "0x73af50b675ebd5cdf47a00a84276df0fb366a67658f13a29fb9e92e7cd3a3017",
      "standardV": "0x1",
      "to": "0xb6d6e6b3e1d0fc1733d3b4651eb1031a363bf734",
      "transactionIndex": null,
      "v": "0x4a96",
      "value": "0x0"
    },
    {
      "blockHash": null,
      "blockNumber": null,
      "chainId": "0x2539",
      "condition": null,
      "creates": null,
      "from": "0xba98a648e273479d8780d6e78f00cbb00c5cb275",
      "gas": "0x203a0",
      "gasPrice": "0x3b9aca00",
      "hash": "0xe9c870926d186a1e509628631576ef140fb657ecd2830982017b71a2f2131c94",
      "input": "0x9e7306df000000000000000000000000fefefefefefefefefefefefefefefefefefefefe000000000000000000000000efefefefefefefefefefefefefefefefefefefef0000000000000000000000000000000000000000000000000000000000000001",
      "nonce": "0x161",
      "publicKey": "0x7d85ef31e0f8fc6470d2decfb5840e02dc20859a232fc3d01db861d4b8bdb3ec8ab46a445658dd6d0c6ee8e201f36b8c43320c02fc0653363476e1793189d18a",
      "r": "0x2f8fc9b175cb88a95ba3dc57d6e63ee19ca4ca0ae3f96f6af8d73bad870daf80",
      "raw": "0xf8cd820161843b9aca00830203a0940acf3696cdf39b3782d984693c122ac34ac614c780b8649e7306df000000000000000000000000fefefefefefefefefefefefefefefefefefefefe000000000000000000000000efefefefefefefefefefefefefefefefefefefef0000000000000000000000000000000000000000000000000000000000000001824a96a02f8fc9b175cb88a95ba3dc57d6e63ee19ca4ca0ae3f96f6af8d73bad870daf80a04d889f1edf685d8cf72767634d5b7a1274e26f00619f1ea520a8832498a7d37c",
      "s": "0x4d889f1edf685d8cf72767634d5b7a1274e26f00619f1ea520a8832498a7d37c",
      "standardV": "0x1",
      "to": "0x0acf3696cdf39b3782d984693c122ac34ac614c7",
      "transactionIndex": null,
      "v": "0x4a96",
      "value": "0x0"
    },
    {
      "blockHash": null,
      "blockNumber": null,
      "chainId": "0x2539",
      "condition": null,
      "creates": null,
      "from": "0xba98a648e273479d8780d6e78f00cbb00c5cb275",
      "gas": "0x203a0",
      "gasPrice": "0x3b9aca00",
      "hash": "0xc651a1faabbb8358747cb295947d00e7cb37866097e1bf19a1bb57222133fc74",
      "input": "0x9e7306df000000000000000000000000fefefefefefefefefefefefefefefefefefefefe000000000000000000000000efefefefefefefefefefefefefefefefefefefef0000000000000000000000000000000000000000000000000000000000000001",
      "nonce": "0x162",
      "publicKey": "0x7d85ef31e0f8fc6470d2decfb5840e02dc20859a232fc3d01db861d4b8bdb3ec8ab46a445658dd6d0c6ee8e201f36b8c43320c02fc0653363476e1793189d18a",
      "r": "0x8eb76d6e5537f43f11f85ac07b73a2fdabc754315f2a80a29da32ccbb4b3ef36",
      "raw": "0xf8cd820162843b9aca00830203a094b6d6e6b3e1d0fc1733d3b4651eb1031a363bf73480b8649e7306df000000000000000000000000fefefefefefefefefefefefefefefefefefefefe000000000000000000000000efefefefefefefefefefefefefefefefefefefef0000000000000000000000000000000000000000000000000000000000000001824a96a08eb76d6e5537f43f11f85ac07b73a2fdabc754315f2a80a29da32ccbb4b3ef36a0478dba3cf0385536f8a34adaec6379d20709db75564513a8aba59638cc2e9521",
      "s": "0x478dba3cf0385536f8a34adaec6379d20709db75564513a8aba59638cc2e9521",
      "standardV": "0x1",
      "to": "0xb6d6e6b3e1d0fc1733d3b4651eb1031a363bf734",
      "transactionIndex": null,
      "v": "0x4a96",
      "value": "0x0"
    },
    {
      "blockHash": null,
      "blockNumber": null,
      "chainId": "0x2539",
      "condition": null,
      "creates": null,
      "from": "0xba98a648e273479d8780d6e78f00cbb00c5cb275",
      "gas": "0x203a0",
      "gasPrice": "0x3b9aca00",
      "hash": "0x58e99a406ebb5783287168092855dd188cf01926c14b509d7d4d4856d2caf891",
      "input": "0x9e7306df000000000000000000000000fefefefefefefefefefefefefefefefefefefefe000000000000000000000000efefefefefefefefefefefefefefefefefefefef0000000000000000000000000000000000000000000000000000000000000001",
      "nonce": "0x163",
      "publicKey": "0x7d85ef31e0f8fc6470d2decfb5840e02dc20859a232fc3d01db861d4b8bdb3ec8ab46a445658dd6d0c6ee8e201f36b8c43320c02fc0653363476e1793189d18a",
      "r": "0x66d25113a430610e20ab0bd7df2418834c00c682daed49ee346a6f8eb460328c",
      "raw": "0xf8cc820163843b9aca00830203a0940acf3696cdf39b3782d984693c122ac34ac614c780b8649e7306df000000000000000000000000fefefefefefefefefefefefefefefefefefefefe000000000000000000000000efefefefefefefefefefefefefefefefefefefef0000000000000000000000000000000000000000000000000000000000000001824a95a066d25113a430610e20ab0bd7df2418834c00c682daed49ee346a6f8eb460328c9fa2416c1fa3c75b7974f6ad127ef39fb845865df44ad012af2d0826779b9334",
      "s": "0xa2416c1fa3c75b7974f6ad127ef39fb845865df44ad012af2d0826779b9334",
      "standardV": "0x0",
      "to": "0x0acf3696cdf39b3782d984693c122ac34ac614c7",
      "transactionIndex": null,
      "v": "0x4a95",
      "value": "0x0"
    },
    {
      "blockHash": null,
      "blockNumber": null,
      "chainId": "0x2539",
      "condition": null,
      "creates": null,
      "from": "0xba98a648e273479d8780d6e78f00cbb00c5cb275",
      "gas": "0x203a0",
      "gasPrice": "0x3b9aca00",
      "hash": "0x637e9e7f1b03bda282869d9d458a77f46d7476e2b7c4ab5dbb933f54c247adbc",
      "input": "0x9e7306df000000000000000000000000fefefefefefefefefefefefefefefefefefefefe000000000000000000000000efefefefefefefefefefefefefefefefefefefef0000000000000000000000000000000000000000000000000000000000000001",
      "nonce": "0x164",
      "publicKey": "0x7d85ef31e0f8fc6470d2decfb5840e02dc20859a232fc3d01db861d4b8bdb3ec8ab46a445658dd6d0c6ee8e201f36b8c43320c02fc0653363476e1793189d18a",
      "r": "0x8f2d8cd7fcd40643672d11e81b157a6181ecb2df70086dd38217f67042f0dba3",
      "raw": "0xf8cd820164843b9aca00830203a094b6d6e6b3e1d0fc1733d3b4651eb1031a363bf73480b8649e7306df000000000000000000000000fefefefefefefefefefefefefefefefefefefefe000000000000000000000000efefefefefefefefefefefefefefefefefefefef0000000000000000000000000000000000000000000000000000000000000001824a95a08f2d8cd7fcd40643672d11e81b157a6181ecb2df70086dd38217f67042f0dba3a0546d0bf8b73a1a3a009a75dab6512a28299898e35384aad207907b5a2794c14d",
      "s": "0x546d0bf8b73a1a3a009a75dab6512a28299898e35384aad207907b5a2794c14d",
      "standardV": "0x0",
      "to": "0xb6d6e6b3e1d0fc1733d3b4651eb1031a363bf734",
      "transactionIndex": null,
      "v": "0x4a95",
      "value": "0x0"
    },
    {
      "blockHash": null,
      "blockNumber": null,
      "chainId": "0x2539",
      "condition": null,
      "creates": null,
      "from": "0xba98a648e273479d8780d6e78f00cbb00c5cb275",
      "gas": "0x203a0",
      "gasPrice": "0x3b9aca00",
      "hash": "0xe025a8b2753a5c27409ec6bb3db42ff131861c92ae137b4ddb764c2e6ad037d8",
      "input": "0x9e7306df000000000000000000000000fefefefefefefefefefefefefefefefefefefefe000000000000000000000000efefefefefefefefefefefefefefefefefefefef0000000000000000000000000000000000000000000000000000000000000001",
      "nonce": "0x165",
      "publicKey": "0x7d85ef31e0f8fc6470d2decfb5840e02dc20859a232fc3d01db861d4b8bdb3ec8ab46a445658dd6d0c6ee8e201f36b8c43320c02fc0653363476e1793189d18a",
      "r": "0xf3ea204feacd6749a6e635ff8781b34f35e7fabe5217bc529cad4b1e123d3830",
      "raw": "0xf8cd820165843b9aca00830203a0940acf3696cdf39b3782d984693c122ac34ac614c780b8649e7306df000000000000000000000000fefefefefefefefefefefefefefefefefefefefe000000000000000000000000efefefefefefefefefefefefefefefefefefefef0000000000000000000000000000000000000000000000000000000000000001824a95a0f3ea204feacd6749a6e635ff8781b34f35e7fabe5217bc529cad4b1e123d3830a02ac643dde144c3c13e44df618b63283e6e298ce731874d346033e86cdbe5f18c",
      "s": "0x2ac643dde144c3c13e44df618b63283e6e298ce731874d346033e86cdbe5f18c",
      "standardV": "0x0",
      "to": "0x0acf3696cdf39b3782d984693c122ac34ac614c7",
      "transactionIndex": null,
      "v": "0x4a95",
      "value": "0x0"
    },
    {
      "blockHash": null,
      "blockNumber": null,
      "chainId": "0x2539",
      "condition": null,
      "creates": null,
      "from": "0xba98a648e273479d8780d6e78f00cbb00c5cb275",
      "gas": "0x203a0",
      "gasPrice": "0x3b9aca00",
      "hash": "0xe40ba050a4cab18326f4fa4200a3c991f3664297cf47b4761ce1021c741e4a62",
      "input": "0x9e7306df000000000000000000000000fefefefefefefefefefefefefefefefefefefefe000000000000000000000000efefefefefefefefefefefefefefefefefefefef0000000000000000000000000000000000000000000000000000000000000001",
      "nonce": "0x166",
      "publicKey": "0x7d85ef31e0f8fc6470d2decfb5840e02dc20859a232fc3d01db861d4b8bdb3ec8ab46a445658dd6d0c6ee8e201f36b8c43320c02fc0653363476e1793189d18a",
      "r": "0x6b871ee1a82a6b4dbc77902d6793ecf95e064092cf0886b7082ced2848619e4d",
      "raw": "0xf8cd820166843b9aca00830203a094b6d6e6b3e1d0fc1733d3b4651eb1031a363bf73480b8649e7306df000000000000000000000000fefefefefefefefefefefefefefefefefefefefe000000000000000000000000efefefefefefefefefefefefefefefefefefefef0000000000000000000000000000000000000000000000000000000000000001824a95a06b871ee1a82a6b4dbc77902d6793ecf95e064092cf0886b7082ced2848619e4da05a9eaed3be9dcd30a2ca5fc7c8e0d268e6dfa67869dcb52b5e0865aeaa274381",
      "s": "0x5a9eaed3be9dcd30a2ca5fc7c8e0d268e6dfa67869dcb52b5e0865aeaa274381",
      "standardV": "0x0",
      "to": "0xb6d6e6b3e1d0fc1733d3b4651eb1031a363bf734",
      "transactionIndex": null,
      "v": "0x4a95",
      "value": "0x0"
    },
    {
      "blockHash": null,
      "blockNumber": null,
      "chainId": "0x2539",
      "condition": null,
      "creates": null,
      "from": "0xba98a648e273479d8780d6e78f00cbb00c5cb275",
      "gas": "0x203a0",
      "gasPrice": "0x3b9aca00",
      "hash": "0xbe06116f621be0a91a62f9f5c7d7a317e539597ba36806c22adf2e810bd33adb",
      "input": "0x9e7306df000000000000000000000000fefefefefefefefefefefefefefefefefefefefe000000000000000000000000efefefefefefefefefefefefefefefefefefefef0000000000000000000000000000000000000000000000000000000000000001",
      "nonce": "0x168",
      "publicKey": "0x7d85ef31e0f8fc6470d2decfb5840e02dc20859a232fc3d01db861d4b8bdb3ec8ab46a445658dd6d0c6ee8e201f36b8c43320c02fc0653363476e1793189d18a",
      "r": "0x6b03a0716ebc66ed59171a6e7f4958b6ed1224e977fcdd2f8fb6aa9159198e",
      "raw": "0xf8cc820168843b9aca00830203a094b6d6e6b3e1d0fc1733d3b4651eb1031a363bf73480b8649e7306df000000000000000000000000fefefefefefefefefefefefefefefefefefefefe000000000000000000000000efefefefefefefefefefefefefefefefefefefef0000000000000000000000000000000000000000000000000000000000000001824a959f6b03a0716ebc66ed59171a6e7f4958b6ed1224e977fcdd2f8fb6aa9159198ea005b8fa405ed186365a82b900e58a39e74c961d34236a6b0c523887007418e71c",
      "s": "0x5b8fa405ed186365a82b900e58a39e74c961d34236a6b0c523887007418e71c",
      "standardV": "0x0",
      "to": "0xb6d6e6b3e1d0fc1733d3b4651eb1031a363bf734",
      "transactionIndex": null,
      "v": "0x4a95",
      "value": "0x0"
    },
    {
      "blockHash": null,
      "blockNumber": null,
      "chainId": "0x2539",
      "condition": null,
      "creates": null,
      "from": "0xba98a648e273479d8780d6e78f00cbb00c5cb275",
      "gas": "0x203a0",
      "gasPrice": "0x3b9aca00",
      "hash": "0x630eb8bf1e92394f475d4a98ae2fa7e60006020c53c1e4e73b787decb9635851",
      "input": "0x9e7306df000000000000000000000000fefefefefefefefefefefefefefefefefefefefe000000000000000000000000efefefefefefefefefefefefefefefefefefefef0000000000000000000000000000000000000000000000000000000000000001",
      "nonce": "0x169",
      "publicKey": "0x7d85ef31e0f8fc6470d2decfb5840e02dc20859a232fc3d01db861d4b8bdb3ec8ab46a445658dd6d0c6ee8e201f36b8c43320c02fc0653363476e1793189d18a",
      "r": "0xa86f5c40bd318bce66ea6f33bce1ab9a4e243c2a7ad3c72eb48c3df5467efbbb",
      "raw": "0xf8cd820169843b9aca00830203a0940acf3696cdf39b3782d984693c122ac34ac614c780b8649e7306df000000000000000000000000fefefefefefefefefefefefefefefefefefefefe000000000000000000000000efefefefefefefefefefefefefefefefefefefef0000000000000000000000000000000000000000000000000000000000000001824a96a0a86f5c40bd318bce66ea6f33bce1ab9a4e243c2a7ad3c72eb48c3df5467efbbba01d4b8d75b5928cd8eb5004b1fc2b33ab0f9a5f8b5b5a4f313aa343b135fafbc3",
      "s": "0x1d4b8d75b5928cd8eb5004b1fc2b33ab0f9a5f8b5b5a4f313aa343b135fafbc3",
      "standardV": "0x1",
      "to": "0x0acf3696cdf39b3782d984693c122ac34ac614c7",
      "transactionIndex": null,
      "v": "0x4a96",
      "value": "0x0"
    },
    {
      "blockHash": null,
      "blockNumber": null,
      "chainId": "0x2539",
      "condition": null,
      "creates": null,
      "from": "0xba98a648e273479d8780d6e78f00cbb00c5cb275",
      "gas": "0x203a0",
      "gasPrice": "0x3b9aca00",
      "hash": "0x8906bf8e59de402563177658a42e5adc11402798db863de01bbcf1ef6f0baca3",
      "input": "0x9e7306df000000000000000000000000fefefefefefefefefefefefefefefefefefefefe000000000000000000000000efefefefefefefefefefefefefefefefefefefef0000000000000000000000000000000000000000000000000000000000000001",
      "nonce": "0x16a",
      "publicKey": "0x7d85ef31e0f8fc6470d2decfb5840e02dc20859a232fc3d01db861d4b8bdb3ec8ab46a445658dd6d0c6ee8e201f36b8c43320c02fc0653363476e1793189d18a",
      "r": "0x90c44fa3c4744863360bc899d602e526c62b9a55762b109ecc190341e50433d8",
      "raw": "0xf8cd82016a843b9aca00830203a094b6d6e6b3e1d0fc1733d3b4651eb1031a363bf73480b8649e7306df000000000000000000000000fefefefefefefefefefefefefefefefefefefefe000000000000000000000000efefefefefefefefefefefefefefefefefefefef0000000000000000000000000000000000000000000000000000000000000001824a95a090c44fa3c4744863360bc899d602e526c62b9a55762b109ecc190341e50433d8a05296c020ce604e20544c2ce2dc616689540023014ee2255585bb96175f5ac731",
      "s": "0x5296c020ce604e20544c2ce2dc616689540023014ee2255585bb96175f5ac731",
      "standardV": "0x0",
      "to": "0xb6d6e6b3e1d0fc1733d3b4651eb1031a363bf734",
      "transactionIndex": null,
      "v": "0x4a95",
      "value": "0x0"
    },
    {
      "blockHash": null,
      "blockNumber": null,
      "chainId": "0x2539",
      "condition": null,
      "creates": null,
      "from": "0xba98a648e273479d8780d6e78f00cbb00c5cb275",
      "gas": "0x203a0",
      "gasPrice": "0x3b9aca00",
      "hash": "0x6305df23f0b58833ef0b294d97bff2657b3f05da6f503a7d79ec76daf1074703",
      "input": "0x9e7306df000000000000000000000000fefefefefefefefefefefefefefefefefefefefe000000000000000000000000efefefefefefefefefefefefefefefefefefefef0000000000000000000000000000000000000000000000000000000000000001",
      "nonce": "0x16b",
      "publicKey": "0x7d85ef31e0f8fc6470d2decfb5840e02dc20859a232fc3d01db861d4b8bdb3ec8ab46a445658dd6d0c6ee8e201f36b8c43320c02fc0653363476e1793189d18a",
      "r": "0xc0f4ad5fc64dfbfb0ed5a2c3ca0845cfdfc594d082969d0c7927765e888a7ae7",
      "raw": "0xf8cd82016b843b9aca00830203a0940acf3696cdf39b3782d984693c122ac34ac614c780b8649e7306df000000000000000000000000fefefefefefefefefefefefefefefefefefefefe000000000000000000000000efefefefefefefefefefefefefefefefefefefef0000000000000000000000000000000000000000000000000000000000000001824a96a0c0f4ad5fc64dfbfb0ed5a2c3ca0845cfdfc594d082969d0c7927765e888a7ae7a01bcfe5e1e5c668a8b595dd41b004714e7ce7c51bf9e50327df31ceab28da9f40",
      "s": "0x1bcfe5e1e5c668a8b595dd41b004714e7ce7c51bf9e50327df31ceab28da9f40",
      "standardV": "0x1",
      "to": "0x0acf3696cdf39b3782d984693c122ac34ac614c7",
      "transactionIndex": null,
      "v": "0x4a96",
      "value": "0x0"
    },
    {
      "blockHash": null,
      "blockNumber": null,
      "chainId": "0x2539",
      "condition": null,
      "creates": null,
      "from": "0xba98a648e273479d8780d6e78f00cbb00c5cb275",
      "gas": "0x203a0",
      "gasPrice": "0x3b9aca00",
      "hash": "0x59371864db963f685bb6d54f93c4db2ea0f42f74df43a30a79538f52a75fac2f",
      "input": "0x9e7306df000000000000000000000000fefefefefefefefefefefefefefefefefefefefe000000000000000000000000efefefefefefefefefefefefefefefefefefefef0000000000000000000000000000000000000000000000000000000000000001",
      "nonce": "0x16d",
      "publicKey": "0x7d85ef31e0f8fc6470d2decfb5840e02dc20859a232fc3d01db861d4b8bdb3ec8ab46a445658dd6d0c6ee8e201f36b8c43320c02fc0653363476e1793189d18a",
      "r": "0xd71ef55d5cda75316faa5bc741b7116e0f7d06b4a428af1c2b8e7739304630a8",
      "raw": "0xf8cd82016d843b9aca00830203a0940acf3696cdf39b3782d984693c122ac34ac614c780b8649e7306df000000000000000000000000fefefefefefefefefefefefefefefefefefefefe000000000000000000000000efefefefefefefefefefefefefefefefefefefef0000000000000000000000000000000000000000000000000000000000000001824a96a0d71ef55d5cda75316faa5bc741b7116e0f7d06b4a428af1c2b8e7739304630a8a01ee0c9c459c0e86af542aea5c76318ca475741528b5da4c19691b4772fffaff3",
      "s": "0x1ee0c9c459c0e86af542aea5c76318ca475741528b5da4c19691b4772fffaff3",
      "standardV": "0x1",
      "to": "0x0acf3696cdf39b3782d984693c122ac34ac614c7",
      "transactionIndex": null,
      "v": "0x4a96",
      "value": "0x0"
    },
    {
      "blockHash": null,
      "blockNumber": null,
      "chainId": "0x2539",
      "condition": null,
      "creates": null,
      "from": "0xba98a648e273479d8780d6e78f00cbb00c5cb275",
      "gas": "0x203a0",
      "gasPrice": "0x3b9aca00",
      "hash": "0x1190909b575fb1110644d51f0b44844f0d8b7edb1fa0ba8f0e34c66ad2ab0092",
      "input": "0x9e7306df000000000000000000000000fefefefefefefefefefefefefefefefefefefefe000000000000000000000000efefefefefefefefefefefefefefefefefefefef0000000000000000000000000000000000000000000000000000000000000001",
      "nonce": "0x16e",
      "publicKey": "0x7d85ef31e0f8fc6470d2decfb5840e02dc20859a232fc3d01db861d4b8bdb3ec8ab46a445658dd6d0c6ee8e201f36b8c43320c02fc0653363476e1793189d18a",
      "r": "0x791416e236a41b34f3ba00568840b903b0fb66cc4e1b3e38f92fb97a11d908e",
      "raw": "0xf8cd82016e843b9aca00830203a094b6d6e6b3e1d0fc1733d3b4651eb1031a363bf73480b8649e7306df000000000000000000000000fefefefefefefefefefefefefefefefefefefefe000000000000000000000000efefefefefefefefefefefefefefefefefefefef0000000000000000000000000000000000000000000000000000000000000001824a96a00791416e236a41b34f3ba00568840b903b0fb66cc4e1b3e38f92fb97a11d908ea039ba36ae30a6a9168fef1c93f6aa6f0a4f6686a99fb63926e60f9effaec60460",
      "s": "0x39ba36ae30a6a9168fef1c93f6aa6f0a4f6686a99fb63926e60f9effaec60460",
      "standardV": "0x1",
      "to": "0xb6d6e6b3e1d0fc1733d3b4651eb1031a363bf734",
      "transactionIndex": null,
      "v": "0x4a96",
      "value": "0x0"
    },
    {
      "blockHash": null,
      "blockNumber": null,
      "chainId": "0x2539",
      "condition": null,
      "creates": null,
      "from": "0xba98a648e273479d8780d6e78f00cbb00c5cb275",
      "gas": "0x203a0",
      "gasPrice": "0x3b9aca00",
      "hash": "0x50c129549850a475e336aafdb984ac59c69c958ea58d6f7c2c5cc126850a8f93",
      "input": "0x9e7306df000000000000000000000000fefefefefefefefefefefefefefefefefefefefe000000000000000000000000efefefefefefefefefefefefefefefefefefefef0000000000000000000000000000000000000000000000000000000000000001",
      "nonce": "0x170",
      "publicKey": "0x7d85ef31e0f8fc6470d2decfb5840e02dc20859a232fc3d01db861d4b8bdb3ec8ab46a445658dd6d0c6ee8e201f36b8c43320c02fc0653363476e1793189d18a",
      "r": "0xff9e4b624c791acef94542b260c5323fedf7f9f0765b8e075530aba584c16e5e",
      "raw": "0xf8cd820170843b9aca00830203a094b6d6e6b3e1d0fc1733d3b4651eb1031a363bf73480b8649e7306df000000000000000000000000fefefefefefefefefefefefefefefefefefefefe000000000000000000000000efefefefefefefefefefefefefefefefefefefef0000000000000000000000000000000000000000000000000000000000000001824a95a0ff9e4b624c791acef94542b260c5323fedf7f9f0765b8e075530aba584c16e5ea028bd1f4fefd7f509c55ed852c323bff67c2ad5806ff6e20ff1c847101aa7f336",
      "s": "0x28bd1f4fefd7f509c55ed852c323bff67c2ad5806ff6e20ff1c847101aa7f336",
      "standardV": "0x0",
      "to": "0xb6d6e6b3e1d0fc1733d3b4651eb1031a363bf734",
      "transactionIndex": null,
      "v": "0x4a95",
      "value": "0x0"
    },
    {
      "blockHash": null,
      "blockNumber": null,
      "chainId": "0x2539",
      "condition": null,
      "creates": null,
      "from": "0xba98a648e273479d8780d6e78f00cbb00c5cb275",
      "gas": "0x203a0",
      "gasPrice": "0x3b9aca00",
      "hash": "0x2c1da7c56c4dac0fee175d5c5295f9f463d9615af88c387562fb706f04394fde",
      "input": "0x9e7306df000000000000000000000000fefefefefefefefefefefefefefefefefefefefe000000000000000000000000efefefefefefefefefefefefefefefefefefefef0000000000000000000000000000000000000000000000000000000000000001",
      "nonce": "0x171",
      "publicKey": "0x7d85ef31e0f8fc6470d2decfb5840e02dc20859a232fc3d01db861d4b8bdb3ec8ab46a445658dd6d0c6ee8e201f36b8c43320c02fc0653363476e1793189d18a",
      "r": "0x9d7a49ea8cd7e7aed677899b88abdf53942223e8fd6ab2e2b8fe52eb198eecfc",
      "raw": "0xf8cd820171843b9aca00830203a0940acf3696cdf39b3782d984693c122ac34ac614c780b8649e7306df000000000000000000000000fefefefefefefefefefefefefefefefefefefefe000000000000000000000000efefefefefefefefefefefefefefefefefefefef0000000000000000000000000000000000000000000000000000000000000001824a95a09d7a49ea8cd7e7aed677899b88abdf53942223e8fd6ab2e2b8fe52eb198eecfca0164a9d4954706b20b0dbd88e0b116c12036c2261f7e806420c92db0d7625b6e2",
      "s": "0x164a9d4954706b20b0dbd88e0b116c12036c2261f7e806420c92db0d7625b6e2",
      "standardV": "0x0",
      "to": "0x0acf3696cdf39b3782d984693c122ac34ac614c7",
      "transactionIndex": null,
      "v": "0x4a95",
      "value": "0x0"
    }
  ],
  "id": "asdfas"
}
