{
  "jsonrpc": "2.0",
  "result": [
    {
      "blockHash": null,
      "blockNumber": null,
      "chainId": "0x2539",
      "condition": null,
      "creates": null,
      "from": "0xba98a648e273479d8780d6e78f00cbb00c5cb275",
      "gas": "0x203a0",
      "gasPrice": "0x3b9aca00",
      "hash": "0x06397c1c81c6165146993805c9c56fb971cbdd6d6b8750e4f3053ddbd6cf6e16",
      "input": "0x9e7306df000000000000000000000000fefefefefefefefefefefefefefefefefefefefe000000000000000000000000efefefefefefefefefefefefefefefefefefefef0000000000000000000000000000000000000000000000000000000000000001",
      "nonce": "0x153",
      "publicKey": "0x7d85ef31e0f8fc6470d2decfb5840e02dc20859a232fc3d01db861d4b8bdb3ec8ab46a445658dd6d0c6ee8e201f36b8c43320c02fc0653363476e1793189d18a",
      "r": "0x4230426a62f0ab10e9f8191ee5c3f064490700785e6c6dcbaed1b392e6bccae7",
      "raw": "0xf8cd820153843b9aca00830203a0940acf3696cdf39b3782d984693c122ac34ac614c780b8649e7306df000000000000000000000000fefefefefefefefefefefefefefefefefefefefe000000000000000000000000efefefefefefefefefefefefefefefefefefefef0000000000000000000000000000000000000000000000000000000000000001824a95a04230426a62f0ab10e9f8191ee5c3f064490700785e6c6dcbaed1b392e6bccae7a006ce30da1bafe2f480e02cfa16af23e25118473eb733d4c0fd9e3fc192a82ccf",
      "s": "0x6ce30da1bafe2f480e02cfa16af23e25118473eb733d4c0fd9e3fc192a82ccf",
      "standardV": "0x0",
      "to": "0x0acf3696cdf39b3782d984693c122ac34ac614c7",
      "transactionIndex": null,
      "v": "0x4a95",
      "value": "0x0"
    },
    {
      "blockHash": null,
      "blockNumber": null,
      "chainId": "0x2539",
      "condition": null,
      "creates": null,
      "from": "0xba98a648e273479d8780d6e78f00cbb00c5cb275",
      "gas": "0x203a0",
      "gasPrice": "0x3b9aca00",
      "hash": "0xc2c4808826b87db0eb0ebac60ab41bdb054a55e95d4557db449b9a65a63232db",
      "input": "0x9e7306df000000000000000000000000fefefefefefefefefefefefefefefefefefefefe000000000000000000000000efefefefefefefefefefefefefefefefefefefef0000000000000000000000000000000000000000000000000000000000000001",
      "nonce": "0x155",
      "publicKey": "0x7d85ef31e0f8fc6470d2decfb5840e02dc20859a232fc3d01db861d4b8bdb3ec8ab46a445658dd6d0c6ee8e201f36b8c43320c02fc0653363476e1793189d18a",
      "r": "0xb1e2ba6366207c635c87079e9c1f85c31f224f8dbfba7aca8cb9b143ed0f2cce",
      "raw": "0xf8cd820155843b9aca00830203a0940acf3696cdf39b3782d984693c122ac34ac614c780b8649e7306df000000000000000000000000fefefefefefefefefefefefefefefefefefefefe000000000000000000000000efefefefefefefefefefefefefefefefefefefef0000000000000000000000000000000000000000000000000000000000000001824a95a0b1e2ba6366207c635c87079e9c1f85c31f224f8dbfba7aca8cb9b143ed0f2ccea00bd14d9425174ba662b3e6c09566d5a33f9a89d6f43bd5fdbec14b15746a26d6",
      "s": "0xbd14d9425174ba662b3e6c09566d5a33f9a89d6f43bd5fdbec14b15746a26d6",
      "standardV": "0x0",
      "to": "0x0acf3696cdf39b3782d984693c122ac34ac614c7",
      "transactionIndex": null,
      "v": "0x4a95",
      "value": "0x0"
    },
    {
      "blockHash": null,
      "blockNumber": null,
      "chainId": "0x2539",
      "condition": null,
      "creates": null,
      "from": "0xba98a648e273479d8780d6e78f00cbb00c5cb275",
      "gas": "0x203a0",
      "gasPrice": "0x3b9aca00",
      "hash": "0xa12000e026646997e0dbd991365000af47d456135bfdfac481a0010dc123b7cd",
      "input": "0x9e7306df000000000000000000000000fefefefefefefefefefefefefefefefefefefefe000000000000000000000000efefefefefefefefefefefefefefefefefefefef0000000000000000000000000000000000000000000000000000000000000001",
      "nonce": "0x156",
      "publicKey": "0x7d85ef31e0f8fc6470d2decfb5840e02dc20859a232fc3d01db861d4b8bdb3ec8ab46a445658dd6d0c6ee8e201f36b8c43320c02fc0653363476e1793189d18a",
      "r": "0xacbdb1f39f1be2bbc40c9e1a7370ebe13968783b816b286c70b59f761818630",
      "raw": "0xf8cd820156843b9aca00830203a094b6d6e6b3e1d0fc1733d3b4651eb1031a363bf73480b8649e7306df000000000000000000000000fefefefefefefefefefefefefefefefefefefefe000000000000000000000000efefefefefefefefefefefefefefefefefefefef0000000000000000000000000000000000000000000000000000000000000001824a95a00acbdb1f39f1be2bbc40c9e1a7370ebe13968783b816b286c70b59f761818630a0692ae6a2d3382e416aa704982c32fd021cdd08a58d947f0836aa683e03fb416e",
      "s": "0x692ae6a2d3382e416aa704982c32fd021cdd08a58d947f0836aa683e03fb416e",
      "standardV": "0x0",
      "to": "0xb6d6e6b3e1d0fc1733d3b4651eb1031a363bf734",
      "transactionIndex": null,
      "v": "0x4a95",
      "value": "0x0"
    },
    {
      "blockHash": null,
      "blockNumber": null,
      "chainId": "0x2539",
      "condition": null,
      "creates": null,
      "from": "0xba98a648e273479d8780d6e78f00cbb00c5cb275",
      "gas": "0x203a0",
      "gasPrice": "0x3b9aca00",
      "hash": "0xa0884742a9f603d562a7feb395287bb6d369b6804f3a64cd1729420700d78d72",
      "input": "0x9e7306df000000000000000000000000fefefefefefefefefefefefefefefefefefefefe000000000000000000000000efefefefefefefefefefefefefefefefefefefef0000000000000000000000000000000000000000000000000000000000000001",
      "nonce": "0x159",
      "publicKey": "0x7d85ef31e0f8fc6470d2decfb5840e02dc20859a232fc3d01db861d4b8bdb3ec8ab46a445658dd6d0c6ee8e201f36b8c43320c02fc0653363476e1793189d18a",
      "r": "0x16fa4ee8ee765e0c0791798608f82df4c90ac2fd740c9e85b7ed49bb183a1f16",
      "raw": "0xf8cd820159843b9aca00830203a0940acf3696cdf39b3782d984693c122ac34ac614c780b8649e7306df000000000000000000000000fefefefefefefefefefefefefefefefefefefefe000000000000000000000000efefefefefefefefefefefefefefefefefefefef0000000000000000000000000000000000000000000000000000000000000001824a96a016fa4ee8ee765e0c0791798608f82df4c90ac2fd740c9e85b7ed49bb183a1f16a06394965b06fdc53f13f58d97a7afa939dc90f447b9f90cce5bd26aba4f50feb8",
      "s": "0x6394965b06fdc53f13f58d97a7afa939dc90f447b9f90cce5bd26aba4f50feb8",
      "standardV": "0x1",
      "to": "0x0acf3696cdf39b3782d984693c122ac34ac614c7",
      "transactionIndex": null,
      "v": "0x4a96",
      "value": "0x0"
    },
    {
      "blockHash": null,
      "blockNumber": null,
      "chainId": "0x2539",
      "condition": null,
      "creates": null,
      "from": "0xba98a648e273479d8780d6e78f00cbb00c5cb275",
      "gas": "0x203a0",
      "gasPrice": "0x3b9aca00",
      "hash": "0x4a85e04916ac12e689fe1a1ad927ade1ec1e753977a5a3817da1b249ea88f3cd",
      "input": "0x9e7306df000000000000000000000000fefefefefefefefefefefefefefefefefefefefe000000000000000000000000efefefefefefefefefefefefefefefefefefefef0000000000000000000000000000000000000000000000000000000000000001",
      "nonce": "0x15a",
      "publicKey": "0x7d85ef31e0f8fc6470d2decfb5840e02dc20859a232fc3d01db861d4b8bdb3ec8ab46a445658dd6d0c6ee8e201f36b8c43320c02fc0653363476e1793189d18a",
      "r": "0x59efb9fca5a4647a6bdb0179656fc8d8da37c0a9bd2e31782c1f598b7f3479a0",
      "raw": "0xf8cd82015a843b9aca00830203a094b6d6e6b3e1d0fc1733d3b4651eb1031a363bf73480b8649e7306df000000000000000000000000fefefefefefefefefefefefefefefefefefefefe000000000000000000000000efefefefefefefefefefefefefefefefefefefef0000000000000000000000000000000000000000000000000000000000000001824a95a059efb9fca5a4647a6bdb0179656fc8d8da37c0a9bd2e31782c1f598b7f3479a0a006a1835b1ab72de29f2b288eb24c61437541ba7802993b2c4aaf27a36aa43bbf",
      "s": "0x6a1835b1ab72de29f2b288eb24c61437541ba7802993b2c4aaf27a36aa43bbf",
      "standardV": "0x0",
      "to": "0xb6d6e6b3e1d0fc1733d3b4651eb1031a363bf734",
      "transactionIndex": null,
      "v": "0x4a95",
      "value": "0x0"
    },
    {
      "blockHash": null,
      "blockNumber": null,
      "chainId": "0x2539",
      "condition": null,
      "creates": null,
      "from": "0xba98a648e273479d8780d6e78f00cbb00c5cb275",
      "gas": "0x203a0",
      "gasPrice": "0x3b9aca00",
      "hash": "0xdfd5ee9a8981bfc5e6dc3b06ddc5df7d6d7c683b8c124a878637cef09b8751a2",
      "input": "0x9e7306df000000000000000000000000fefefefefefefefefefefefefefefefefefefefe000000000000000000000000efefefefefefefefefefefefefefefefefefefef0000000000000000000000000000000000000000000000000000000000000001",
      "nonce": "0x15d",
      "publicKey": "0x7d85ef31e0f8fc6470d2decfb5840e02dc20859a232fc3d01db861d4b8bdb3ec8ab46a445658dd6d0c6ee8e201f36b8c43320c02fc0653363476e1793189d18a",
      "r": "0x9120e8a54fb7206f0f59737029179d29e2d6c9a20b853d5f993e146f58c4cbcb",
      "raw": "0xf8cd82015d843b9aca00830203a0940acf3696cdf39b3782d984693c122ac34ac614c780b8649e7306df000000000000000000000000fefefefefefefefefefefefefefefefefefefefe000000000000000000000000efefefefefefefefefefefefefefefefefefefef0000000000000000000000000000000000000000000000000000000000000001824a95a09120e8a54fb7206f0f59737029179d29e2d6c9a20b853d5f993e146f58c4cbcba04d6abf37dfb65055dd95e9c19f72caa99335c07c1d320349970b628888dce0fa",
      "s": "0x4d6abf37dfb65055dd95e9c19f72caa99335c07c1d320349970b628888dce0fa",
      "standardV": "0x0",
      "to": "0x0acf3696cdf39b3782d984693c122ac34ac614c7",
      "transactionIndex": null,
      "v": "0x4a95",
      "value": "0x0"
    },
    {
      "blockHash": null,
      "blockNumber": null,
      "chainId": "0x2539",
      "condition": null,
      "creates": null,
      "from": "0xba98a648e273479d8780d6e78f00cbb00c5cb275",
      "gas": "0x203a0",
      "gasPrice": "0x3b9aca00",
      "hash": "0x40e35ff4cf40dd98d49cad1baa7f669d27ffb1758d1099c2a34be54818b378f3",
      "input": "0x9e7306df000000000000000000000000fefefefefefefefefefefefefefefefefefefefe000000000000000000000000efefefefefefefefefefefefefefefefefefefef0000000000000000000000000000000000000000000000000000000000000001",
      "nonce": "0x15e",
      "publicKey": "0x7d85ef31e0f8fc6470d2decfb5840e02dc20859a232fc3d01db861d4b8bdb3ec8ab46a445658dd6d0c6ee8e201f36b8c43320c02fc0653363476e1793189d18a",
      "r": "0xe546232a1fec0cad2177272bf2182f4153e0c1d7f345aa95e0aa4cc463d7247a",
      "raw": "0xf8cd82015e843b9aca00830203a094b6d6e6b3e1d0fc1733d3b4651eb1031a363bf73480b8649e7306df000000000000000000000000fefefefefefefefefefefefefefefefefefefefe000000000000000000000000efefefefefefefefefefefefefefefefefefefef0000000000000000000000000000000000000000000000000000000000000001824a95a0e546232a1fec0cad2177272bf2182f4153e0c1d7f345aa95e0aa4cc463d7247aa0148358c207e30114c05dc8d839cd595a24a154fae9845f855737f47a3acc9d94",
      "s": "0x148358c207e30114c05dc8d839cd595a24a154fae9845f855737f47a3acc9d94",
      "standardV": "0x0",
      "to": "0xb6d6e6b3e1d0fc1733d3b4651eb1031a363bf734",
      "transactionIndex": null,
      "v": "0x4a95",
      "value": "0x0"
    },
    {
      "blockHash": null,
      "blockNumber": null,
      "chainId": "0x2539",
      "condition": null,
      "creates": null,
      "from": "0xba98a648e273479d8780d6e78f00cbb00c5cb275",
      "gas": "0x203a0",
      "gasPrice": "0x3b9aca00",
      "hash": "0xe4722a9a4431a9256930dcd3dfc5c61c88ce7400cb22213799abddf5a27cbed1",
      "input": "0x9e7306df000000000000000000000000fefefefefefefefefefefefefefefefefefefefe000000000000000000000000efefefefefefefefefefefefefefefefefefefef0000000000000000000000000000000000000000000000000000000000000001",
      "nonce": "0x15f",
      "publicKey": "0x7d85ef31e0f8fc6470d2decfb5840e02dc20859a232fc3d01db861d4b8bdb3ec8ab46a445658dd6d0c6ee8e201f36b8c43320c02fc0653363476e1793189d18a",
      "r": "0x9620516500ffe9ecfc21952fbce862c4f3309a117388244b11278a72eb9f1500",
      "raw": "0xf8cd82015f843b9aca00830203a0940acf3696cdf39b3782d984693c122ac34ac614c780b8649e7306df000000000000000000000000fefefefefefefefefefefefefefefefefefefefe000000000000000000000000efefefefefefefefefefefefefefefefefefefef0000000000000000000000000000000000000000000000000000000000000001824a96a09620516500ffe9ecfc21952fbce862c4f3309a117388244b11278a72eb9f1500a064c2e4ed5b4c8621a46a66e93f92f0e37d999e33c4fc21449cb4d7e3a948a50a",
      "s": "0x64c2e4ed5b4c8621a46a66e93f92f0e37d999e33c4fc21449cb4d7e3a948a50a",
      "standardV": "0x1",
      "to": "0x0acf3696cdf39b3782d984693c122ac34ac614c7",
      "transactionIndex": null,
      "v": "0x4a96",
      "value": "0x0"
    },
    {
      "blockHash": null,
      "blockNumber": null,
      "chainId": "0x2539",
      "condition": null,
      "creates": null,
      "from": "0xba98a648e273479d8780d6e78f00cbb00c5cb275",
      "gas": "0x203a0",
      "gasPrice": "0x3b9aca00",
      "hash": "0x62708a056750c8142ad4b253554ddfad4dfb285b751f5014d6ec0d1ae21a3e3f",
      "input": "0x9e7306df000000000000000000000000fefefefefefefefefefefefefefefefefefefefe000000000000000000000000efefefefefefefefefefefefefefefefefefefef0000000000000000000000000000000000000000000000000000000000000001",
      "nonce": "0x167",
      "publicKey": "0x7d85ef31e0f8fc6470d2decfb5840e02dc20859a232fc3d01db861d4b8bdb3ec8ab46a445658dd6d0c6ee8e201f36b8c43320c02fc0653363476e1793189d18a",
      "r": "0x53dbb1b491d264c498262ce6bd002750211686526ffffa74ed8862458d31c324",
      "raw": "0xf8cd820167843b9aca00830203a0940acf3696cdf39b3782d984693c122ac34ac614c780b8649e7306df000000000000000000000000fefefefefefefefefefefefefefefefefefefefe000000000000000000000000efefefefefefefefefefefefefefefefefefefef0000000000000000000000000000000000000000000000000000000000000001824a95a053dbb1b491d264c498262ce6bd002750211686526ffffa74ed8862458d31c324a013380a1117df322fa3efd6591c33991d3e075ea8f0561d9986d626c127cd284f",
      "s": "0x13380a1117df322fa3efd6591c33991d3e075ea8f0561d9986d626c127cd284f",
      "standardV": "0x0",
      "to": "0x0acf3696cdf39b3782d984693c122ac34ac614c7",
      "transactionIndex": null,
      "v": "0x4a95",
      "value": "0x0"
    },
    {
      "blockHash": null,
      "blockNumber": null,
      "chainId": "0x2539",
      "condition": null,
      "creates": null,
      "from": "0xba98a648e273479d8780d6e78f00cbb00c5cb275",
      "gas": "0x203a0",
      "gasPrice": "0x3b9aca00",
      "hash": "0xdcabaa01c99b5ca85f551e53fc647ea8002b84babb18781f4d7e1db6ec6211be",
      "input": "0x9e7306df000000000000000000000000fefefefefefefefefefefefefefefefefefefefe000000000000000000000000efefefefefefefefefefefefefefefefefefefef0000000000000000000000000000000000000000000000000000000000000001",
      "nonce": "0x16c",
      "publicKey": "0x7d85ef31e0f8fc6470d2decfb5840e02dc20859a232fc3d01db861d4b8bdb3ec8ab46a445658dd6d0c6ee8e201f36b8c43320c02fc0653363476e1793189d18a",
      "r": "0xce5eddb6170b5740c7a742b947c422430040cbee0867164ec303d3cb17100bb5",
      "raw": "0xf8cd82016c843b9aca00830203a094b6d6e6b3e1d0fc1733d3b4651eb1031a363bf73480b8649e7306df000000000000000000000000fefefefefefefefefefefefefefefefefefefefe000000000000000000000000efefefefefefefefefefefefefefefefefefefef0000000000000000000000000000000000000000000000000000000000000001824a95a0ce5eddb6170b5740c7a742b947c422430040cbee0867164ec303d3cb17100bb5a0417a5eb8623b8b9c7a32c9bf5366384dee21ee7b60a4af7c3666556366f61f3d",
      "s": "0x417a5eb8623b8b9c7a32c9bf5366384dee21ee7b60a4af7c3666556366f61f3d",
      "standardV": "0x0",
      "to": "0xb6d6e6b3e1d0fc1733d3b4651eb1031a363bf734",
      "transactionIndex": null,
      "v": "0x4a95",
      "value": "0x0"
    },
    {
      "blockHash": null,
      "blockNumber": null,
      "chainId": "0x2539",
      "condition": null,
      "creates": null,
      "from": "0xba98a648e273479d8780d6e78f00cbb00c5cb275",
      "gas": "0x203a0",
      "gasPrice": "0x3b9aca00",
      "hash": "0x837fc27a823ba82d6f5490c9bcc173a07328203b7206d912876b123798353725",
      "input": "0x9e7306df000000000000000000000000fefefefefefefefefefefefefefefefefefefefe000000000000000000000000efefefefefefefefefefefefefefefefefefefef0000000000000000000000000000000000000000000000000000000000000001",
      "nonce": "0x16f",
      "publicKey": "0x7d85ef31e0f8fc6470d2decfb5840e02dc20859a232fc3d01db861d4b8bdb3ec8ab46a445658dd6d0c6ee8e201f36b8c43320c02fc0653363476e1793189d18a",
      "r": "0x3e13de9beeca35bfe29c324650ee19f9c88fd5756694e0885b4168c30d27165a",
      "raw": "0xf8cd82016f843b9aca00830203a0940acf3696cdf39b3782d984693c122ac34ac614c780b8649e7306df000000000000000000000000fefefefefefefefefefefefefefefefefefefefe000000000000000000000000efefefefefefefefefefefefefefefefefefefef0000000000000000000000000000000000000000000000000000000000000001824a95a03e13de9beeca35bfe29c324650ee19f9c88fd5756694e0885b4168c30d27165aa02fa2507bf32fed60730347b714729246832a1e07d45e4cc11b5a4098ac55de67",
      "s": "0x2fa2507bf32fed60730347b714729246832a1e07d45e4cc11b5a4098ac55de67",
      "standardV": "0x0",
      "to": "0x0acf3696cdf39b3782d984693c122ac34ac614c7",
      "transactionIndex": null,
      "v": "0x4a95",
      "value": "0x0"
    },
    {
      "blockHash": null,
      "blockNumber": null,
      "chainId": "0x2539",
      "condition": null,
      "creates": null,
      "from": "0xba98a648e273479d8780d6e78f00cbb00c5cb275",
      "gas": "0x203a0",
      "gasPrice": "0x3b9aca00",
      "hash": "0x50bab94c4ab2ba1be1fc0540aec578ace030ac8f1c685945ccb124475030a8a3",
      "input": "0x9e7306df000000000000000000000000fefefefefefefefefefefefefefefefefefefefe000000000000000000000000efefefefefefefefefefefefefefefefefefefef0000000000000000000000000000000000000000000000000000000000000001",
      "nonce": "0x172",
      "publicKey": "0x7d85ef31e0f8fc6470d2decfb5840e02dc20859a232fc3d01db861d4b8bdb3ec8ab46a445658dd6d0c6ee8e201f36b8c43320c02fc0653363476e1793189d18a",
      "r": "0x918caa87c467c122d32fe805cdda1c3fcacd26b3b80edcb978bf8b4d445b155c",
      "raw": "0xf8cd820172843b9aca00830203a094b6d6e6b3e1d0fc1733d3b4651eb1031a363bf73480b8649e7306df000000000000000000000000fefefefefefefefefefefefefefefefefefefefe000000000000000000000000efefefefefefefefefefefefefefefefefefefef0000000000000000000000000000000000000000000000000000000000000001824a96a0918caa87c467c122d32fe805cdda1c3fcacd26b3b80edcb978bf8b4d445b155ca03cc50b778fed1b0a9f85776509d92a328c21a5aa4fa6bc991ed64adbd0847dbd",
      "s": "0x3cc50b778fed1b0a9f85776509d92a328c21a5aa4fa6bc991ed64adbd0847dbd",
      "standardV": "0x1",
      "to": "0xb6d6e6b3e1d0fc1733d3b4651eb1031a363bf734",
      "transactionIndex": null,
      "v": "0x4a96",
      "value": "0x0"
    },
    {
      "blockHash": null,
      "blockNumber": null,
      "chainId": "0x2539",
      "condition": null,
      "creates": null,
      "from": "0xba98a648e273479d8780d6e78f00cbb00c5cb275",
      "gas": "0x203a0",
      "gasPrice": "0x3b9aca00",
      "hash": "0xcbd5deda7ad3cf9b5f174f6019c94282c8a4e8787bb7333b075b7c3990fa505f",
      "input": "0x9e7306df000000000000000000000000fefefefefefefefefefefefefefefefefefefefe000000000000000000000000efefefefefefefefefefefefefefefefefefefef0000000000000000000000000000000000000000000000000000000000000001",
      "nonce": "0x173",
      "publicKey": "0x7d85ef31e0f8fc6470d2decfb5840e02dc20859a232fc3d01db861d4b8bdb3ec8ab46a445658dd6d0c6ee8e201f36b8c43320c02fc0653363476e1793189d18a",
      "r": "0xb5d494d6f17dc31446bae783660aaa47b5f490467387de74b146b84fcdd04656",
      "raw": "0xf8cd820173843b9aca00830203a0940acf3696cdf39b3782d984693c122ac34ac614c780b8649e7306df000000000000000000000000fefefefefefefefefefefefefefefefefefefefe000000000000000000000000efefefefefefefefefefefefefefefefefefefef0000000000000000000000000000000000000000000000000000000000000001824a96a0b5d494d6f17dc31446bae783660aaa47b5f490467387de74b146b84fcdd04656a079ff11e286ee04f7d68d080910fbf15d2ff8c7a6faf93712c4305754ed08f9a5",
      "s": "0x79ff11e286ee04f7d68d080910fbf15d2ff8c7a6faf93712c4305754ed08f9a5",
      "standardV": "0x1",
      "to": "0x0acf3696cdf39b3782d984693c122ac34ac614c7",
      "transactionIndex": null,
      "v": "0x4a96",
      "value": "0x0"
    },
    {
      "blockHash": null,
      "blockNumber": null,
      "chainId": "0x2539",
      "condition": null,
      "creates": null,
      "from": "0xba98a648e273479d8780d6e78f00cbb00c5cb275",
      "gas": "0x203a0",
      "gasPrice": "0x3b9aca00",
      "hash": "0x438274e0ea95551eb34bb520c0b39b1f0434fe2b91c536d24b3816bc06a7d87c",
      "input": "0x9e7306df000000000000000000000000fefefefefefefefefefefefefefefefefefefefe000000000000000000000000efefefefefefefefefefefefefefefefefefefef0000000000000000000000000000000000000000000000000000000000000001",
      "nonce": "0x174",
      "publicKey": "0x7d85ef31e0f8fc6470d2decfb5840e02dc20859a232fc3d01db861d4b8bdb3ec8ab46a445658dd6d0c6ee8e201f36b8c43320c02fc0653363476e1793189d18a",
      "r": "0x54a6c5f310039dc38f8aaf97e56354af120d296b976d515b0ac94e956884407d",
      "raw": "0xf8cd820174843b9aca00830203a094b6d6e6b3e1d0fc1733d3b4651eb1031a363bf73480b8649e7306df000000000000000000000000fefefefefefefefefefefefefefefefefefefefe000000000000000000000000efefefefefefefefefefefefefefefefefefefef0000000000000000000000000000000000000000000000000000000000000001824a96a054a6c5f310039dc38f8aaf97e56354af120d296b976d515b0ac94e956884407da03ac4b2e2aacfdb834ff4f0e07cc886b7065a78b0a8249e91f400b1dbbf135d5c",
      "s": "0x3ac4b2e2aacfdb834ff4f0e07cc886b7065a78b0a8249e91f400b1dbbf135d5c",
      "standardV": "0x1",
      "to": "0xb6d6e6b3e1d0fc1733d3b4651eb1031a363bf734",
      "transactionIndex": null,
      "v": "0x4a96",
      "value": "0x0"
    },
    {
      "blockHash": null,
      "blockNumber": null,
      "chainId": "0x2539",
      "condition": null,
      "creates": null,
      "from": "0xba98a648e273479d8780d6e78f00cbb00c5cb275",
      "gas": "0x203a0",
      "gasPrice": "0x3b9aca00",
      "hash": "0x386ece31dc6551b3e17023a70192c425534fe5b28fced4b442c0b2deb23a0b7b",
      "input": "0x9e7306df000000000000000000000000fefefefefefefefefefefefefefefefefefefefe000000000000000000000000efefefefefefefefefefefefefefefefefefefef0000000000000000000000000000000000000000000000000000000000000001",
      "nonce": "0x175",
      "publicKey": "0x7d85ef31e0f8fc6470d2decfb5840e02dc20859a232fc3d01db861d4b8bdb3ec8ab46a445658dd6d0c6ee8e201f36b8c43320c02fc0653363476e1793189d18a",
      "r": "0xa5a409fe6c47e9959d9244745202e2e399cd9002f209d80315062523191dce15",
      "raw": "0xf8cd820175843b9aca00830203a0940acf3696cdf39b3782d984693c122ac34ac614c780b8649e7306df000000000000000000000000fefefefefefefefefefefefefefefefefefefefe000000000000000000000000efefefefefefefefefefefefefefefefefefefef0000000000000000000000000000000000000000000000000000000000000001824a96a0a5a409fe6c47e9959d9244745202e2e399cd9002f209d80315062523191dce15a02dcc76056c7c8c4e838f8e8d450381e90159ad8b19ec8d0f0061952d1b0572c5",
      "s": "0x2dcc76056c7c8c4e838f8e8d450381e90159ad8b19ec8d0f0061952d1b0572c5",
      "standardV": "0x1",
      "to": "0x0acf3696cdf39b3782d984693c122ac34ac614c7",
      "transactionIndex": null,
      "v": "0x4a96",
      "value": "0x0"
    }
  ],
  "id": "asdfas"
}
